{
  "contractName": "Authentication",
  "abi": [
    {
      "constant": true,
      "inputs": [
        {
          "name": "",
          "type": "uint256"
        }
      ],
      "name": "users",
      "outputs": [
        {
          "name": "name",
          "type": "bytes32"
        },
        {
          "name": "password",
          "type": "bytes32"
        },
        {
          "name": "addr",
          "type": "bytes32"
        },
        {
          "name": "phone",
          "type": "uint256"
        }
      ],
      "payable": false,
      "stateMutability": "view",
      "type": "function",
      "signature": "0x365b98b2"
    },
    {
      "constant": true,
      "inputs": [],
      "name": "id",
      "outputs": [
        {
          "name": "",
          "type": "uint256"
        }
      ],
      "payable": false,
      "stateMutability": "view",
      "type": "function",
      "signature": "0xaf640d0f"
    },
    {
      "constant": true,
      "inputs": [],
      "name": "login",
      "outputs": [
        {
          "name": "",
          "type": "bytes32"
        }
      ],
      "payable": false,
      "stateMutability": "view",
      "type": "function",
      "signature": "0xb34e97e8"
    },
    {
      "constant": false,
      "inputs": [
        {
          "name": "name",
          "type": "bytes32"
        },
        {
          "name": "password",
          "type": "bytes32"
        },
        {
          "name": "addr",
          "type": "bytes32"
        },
        {
          "name": "phone",
          "type": "uint256"
        }
      ],
      "name": "signup",
      "outputs": [],
      "payable": false,
      "stateMutability": "nonpayable",
      "type": "function",
      "signature": "0x993332de"
    }
  ],
  "bytecode": "0x608060405234801561001057600080fd5b506102e5806100206000396000f3fe608060405260043610610062576000357c0100000000000000000000000000000000000000000000000000000000900463ffffffff168063365b98b214610067578063993332de146100cb578063af640d0f14610124578063b34e97e81461014f575b600080fd5b34801561007357600080fd5b506100a06004803603602081101561008a57600080fd5b810190808035906020019092919050505061017a565b6040518085815260200184815260200183815260200182815260200194505050505060405180910390f35b3480156100d757600080fd5b50610122600480360360808110156100ee57600080fd5b81019080803590602001909291908035906020019092919080359060200190929190803590602001909291905050506101aa565b005b34801561013057600080fd5b5061013961026b565b6040518082815260200191505060405180910390f35b34801561015b57600080fd5b50610164610271565b6040518082815260200191505060405180910390f35b60006020528060005260406000206000915090508060000154908060010154908060020154908060030154905084565b838383600060010283141580156101c5575060006001028214155b80156101d5575060006001028114155b15156101e057600080fd5b6001600081548092919060010191905055508660008060015481526020019081526020016000206000018190555085600080600154815260200190815260200160002060010181905550846000806001548152602001908152602001600020600201819055508360008060015481526020019081526020016000206003018190555050505050505050565b60015481565b6000806001026000806001548152602001908152602001600020600001541415151561029c57600080fd5b60008060015481526020019081526020016000206000015490509056fea165627a7a723058206c803cc0e36091e4f5299c7620b684fef3cc1c9fd12d62b85af6c35a280ddca80029",
  "source": "pragma solidity >=0.4.22 <0.6;\n\n//import './zeppelin/lifecycle/Killable.sol';\n\ncontract Authentication {\n  struct User {\n    bytes32 name;\n    bytes32 password;\n    bytes32 addr;\n    uint phone;\n  }\n\n  mapping (uint => User) public users;\n\n  uint public id; // Stores user id temporarily\n\n  modifier onlyExistingUser {\n    // Check if user exists or terminate\n\n    require(!(users[id].name == 0x0));\n    _;\n  }\n\n  modifier onlyValidName(bytes32 name,bytes32 password,bytes32 addr) {\n    // Only valid names allowed\n\n    require(!(name == 0x0) && !(password == 0x0) && !(addr == 0x0));\n    _;\n  }\n\n  function login() view\n  public\n  onlyExistingUser\n  returns (bytes32) {\n    return (users[id].name); \n  }\n\n  function signup(bytes32 name,bytes32 password,bytes32 addr,uint phone)public onlyValidName(name,password,addr) {\n    id++;\n    users[id].name = name;\n    users[id].password = password;\n    users[id].addr = addr;\n    users[id].phone = phone;\n  }\n}\n",
  "sourcePath": "D:/BlockChain Proj/simple storage/contracts/Authentication.sol",
  "compiler": {
    "name": "solc",
    "version": "0.5.0+commit.1d4f565a.Emscripten.clang"
  },
  "schemaVersion": "3.0.0",
  "updatedAt": "2019-01-22T14:54:55.348Z",
  "devdoc": {
    "methods": {}
  },
  "userdoc": {
    "methods": {}
  }
}